{
  "_format": "hh-sol-artifact-1",
  "contractName": "NFTMarketPlace",
  "sourceName": "contracts/NFTMarketPlace.sol",
  "abi": [
    {
      "inputs": [],
      "stateMutability": "nonpayable",
      "type": "constructor"
    },
    {
      "inputs": [
        {
          "internalType": "address",
          "name": "target",
          "type": "address"
        }
      ],
      "name": "AddressEmptyCode",
      "type": "error"
    },
    {
      "inputs": [
        {
          "internalType": "address",
          "name": "implementation",
          "type": "address"
        }
      ],
      "name": "ERC1967InvalidImplementation",
      "type": "error"
    },
    {
      "inputs": [],
      "name": "ERC1967NonPayable",
      "type": "error"
    },
    {
      "inputs": [
        {
          "internalType": "address",
          "name": "sender",
          "type": "address"
        },
        {
          "internalType": "uint256",
          "name": "tokenId",
          "type": "uint256"
        },
        {
          "internalType": "address",
          "name": "owner",
          "type": "address"
        }
      ],
      "name": "ERC721IncorrectOwner",
      "type": "error"
    },
    {
      "inputs": [
        {
          "internalType": "address",
          "name": "operator",
          "type": "address"
        },
        {
          "internalType": "uint256",
          "name": "tokenId",
          "type": "uint256"
        }
      ],
      "name": "ERC721InsufficientApproval",
      "type": "error"
    },
    {
      "inputs": [
        {
          "internalType": "address",
          "name": "approver",
          "type": "address"
        }
      ],
      "name": "ERC721InvalidApprover",
      "type": "error"
    },
    {
      "inputs": [
        {
          "internalType": "address",
          "name": "operator",
          "type": "address"
        }
      ],
      "name": "ERC721InvalidOperator",
      "type": "error"
    },
    {
      "inputs": [
        {
          "internalType": "address",
          "name": "owner",
          "type": "address"
        }
      ],
      "name": "ERC721InvalidOwner",
      "type": "error"
    },
    {
      "inputs": [
        {
          "internalType": "address",
          "name": "receiver",
          "type": "address"
        }
      ],
      "name": "ERC721InvalidReceiver",
      "type": "error"
    },
    {
      "inputs": [
        {
          "internalType": "address",
          "name": "sender",
          "type": "address"
        }
      ],
      "name": "ERC721InvalidSender",
      "type": "error"
    },
    {
      "inputs": [
        {
          "internalType": "uint256",
          "name": "tokenId",
          "type": "uint256"
        }
      ],
      "name": "ERC721NonexistentToken",
      "type": "error"
    },
    {
      "inputs": [],
      "name": "FailedCall",
      "type": "error"
    },
    {
      "inputs": [],
      "name": "InvalidInitialization",
      "type": "error"
    },
    {
      "inputs": [],
      "name": "NotInitializing",
      "type": "error"
    },
    {
      "inputs": [
        {
          "internalType": "address",
          "name": "owner",
          "type": "address"
        }
      ],
      "name": "OwnableInvalidOwner",
      "type": "error"
    },
    {
      "inputs": [
        {
          "internalType": "address",
          "name": "account",
          "type": "address"
        }
      ],
      "name": "OwnableUnauthorizedAccount",
      "type": "error"
    },
    {
      "inputs": [],
      "name": "UUPSUnauthorizedCallContext",
      "type": "error"
    },
    {
      "inputs": [
        {
          "internalType": "bytes32",
          "name": "slot",
          "type": "bytes32"
        }
      ],
      "name": "UUPSUnsupportedProxiableUUID",
      "type": "error"
    },
    {
      "anonymous": false,
      "inputs": [
        {
          "indexed": true,
          "internalType": "address",
          "name": "owner",
          "type": "address"
        },
        {
          "indexed": true,
          "internalType": "address",
          "name": "approved",
          "type": "address"
        },
        {
          "indexed": true,
          "internalType": "uint256",
          "name": "tokenId",
          "type": "uint256"
        }
      ],
      "name": "Approval",
      "type": "event"
    },
    {
      "anonymous": false,
      "inputs": [
        {
          "indexed": true,
          "internalType": "address",
          "name": "owner",
          "type": "address"
        },
        {
          "indexed": true,
          "internalType": "address",
          "name": "operator",
          "type": "address"
        },
        {
          "indexed": false,
          "internalType": "bool",
          "name": "approved",
          "type": "bool"
        }
      ],
      "name": "ApprovalForAll",
      "type": "event"
    },
    {
      "anonymous": false,
      "inputs": [
        {
          "indexed": false,
          "internalType": "uint256",
          "name": "_fromTokenId",
          "type": "uint256"
        },
        {
          "indexed": false,
          "internalType": "uint256",
          "name": "_toTokenId",
          "type": "uint256"
        }
      ],
      "name": "BatchMetadataUpdate",
      "type": "event"
    },
    {
      "anonymous": false,
      "inputs": [
        {
          "indexed": false,
          "internalType": "uint64",
          "name": "version",
          "type": "uint64"
        }
      ],
      "name": "Initialized",
      "type": "event"
    },
    {
      "anonymous": false,
      "inputs": [
        {
          "indexed": false,
          "internalType": "uint256",
          "name": "_tokenId",
          "type": "uint256"
        }
      ],
      "name": "MetadataUpdate",
      "type": "event"
    },
    {
      "anonymous": false,
      "inputs": [
        {
          "indexed": true,
          "internalType": "uint256",
          "name": "tokenId",
          "type": "uint256"
        },
        {
          "indexed": false,
          "internalType": "string",
          "name": "uri",
          "type": "string"
        },
        {
          "indexed": true,
          "internalType": "address",
          "name": "owner",
          "type": "address"
        }
      ],
      "name": "NFTMinted",
      "type": "event"
    },
    {
      "anonymous": false,
      "inputs": [
        {
          "indexed": true,
          "internalType": "address",
          "name": "buyer",
          "type": "address"
        },
        {
          "indexed": true,
          "internalType": "uint256",
          "name": "tokenId",
          "type": "uint256"
        },
        {
          "indexed": false,
          "internalType": "uint256",
          "name": "paid",
          "type": "uint256"
        }
      ],
      "name": "NFTPurchased",
      "type": "event"
    },
    {
      "anonymous": false,
      "inputs": [
        {
          "indexed": true,
          "internalType": "address",
          "name": "previousOwner",
          "type": "address"
        },
        {
          "indexed": true,
          "internalType": "address",
          "name": "newOwner",
          "type": "address"
        }
      ],
      "name": "OwnershipTransferred",
      "type": "event"
    },
    {
      "anonymous": false,
      "inputs": [
        {
          "indexed": true,
          "internalType": "uint256",
          "name": "tokenId",
          "type": "uint256"
        },
        {
          "indexed": false,
          "internalType": "bool",
          "name": "isListed",
          "type": "bool"
        }
      ],
      "name": "StockUpdated",
      "type": "event"
    },
    {
      "anonymous": false,
      "inputs": [
        {
          "indexed": true,
          "internalType": "address",
          "name": "from",
          "type": "address"
        },
        {
          "indexed": true,
          "internalType": "address",
          "name": "to",
          "type": "address"
        },
        {
          "indexed": true,
          "internalType": "uint256",
          "name": "tokenId",
          "type": "uint256"
        }
      ],
      "name": "Transfer",
      "type": "event"
    },
    {
      "anonymous": false,
      "inputs": [
        {
          "indexed": true,
          "internalType": "address",
          "name": "implementation",
          "type": "address"
        }
      ],
      "name": "Upgraded",
      "type": "event"
    },
    {
      "inputs": [],
      "name": "UPGRADE_INTERFACE_VERSION",
      "outputs": [
        {
          "internalType": "string",
          "name": "",
          "type": "string"
        }
      ],
      "stateMutability": "view",
      "type": "function"
    },
    {
      "inputs": [
        {
          "internalType": "address",
          "name": "to",
          "type": "address"
        },
        {
          "internalType": "uint256",
          "name": "tokenId",
          "type": "uint256"
        }
      ],
      "name": "approve",
      "outputs": [],
      "stateMutability": "nonpayable",
      "type": "function"
    },
    {
      "inputs": [
        {
          "internalType": "address",
          "name": "owner",
          "type": "address"
        }
      ],
      "name": "balanceOf",
      "outputs": [
        {
          "internalType": "uint256",
          "name": "",
          "type": "uint256"
        }
      ],
      "stateMutability": "view",
      "type": "function"
    },
    {
      "inputs": [
        {
          "internalType": "uint256",
          "name": "tokenId",
          "type": "uint256"
        },
        {
          "internalType": "uint256",
          "name": "expectedPrice",
          "type": "uint256"
        }
      ],
      "name": "buyNFT",
      "outputs": [],
      "stateMutability": "payable",
      "type": "function"
    },
    {
      "inputs": [
        {
          "internalType": "uint256",
          "name": "tokenId",
          "type": "uint256"
        }
      ],
      "name": "getApproved",
      "outputs": [
        {
          "internalType": "address",
          "name": "",
          "type": "address"
        }
      ],
      "stateMutability": "view",
      "type": "function"
    },
    {
      "inputs": [],
      "name": "initialize",
      "outputs": [],
      "stateMutability": "nonpayable",
      "type": "function"
    },
    {
      "inputs": [
        {
          "internalType": "address",
          "name": "owner",
          "type": "address"
        },
        {
          "internalType": "address",
          "name": "operator",
          "type": "address"
        }
      ],
      "name": "isApprovedForAll",
      "outputs": [
        {
          "internalType": "bool",
          "name": "",
          "type": "bool"
        }
      ],
      "stateMutability": "view",
      "type": "function"
    },
    {
      "inputs": [
        {
          "internalType": "string",
          "name": "uri",
          "type": "string"
        }
      ],
      "name": "isMinted",
      "outputs": [
        {
          "internalType": "bool",
          "name": "",
          "type": "bool"
        }
      ],
      "stateMutability": "view",
      "type": "function"
    },
    {
      "inputs": [
        {
          "internalType": "uint256",
          "name": "",
          "type": "uint256"
        }
      ],
      "name": "listings",
      "outputs": [
        {
          "internalType": "address",
          "name": "seller",
          "type": "address"
        },
        {
          "internalType": "uint256",
          "name": "tokenId",
          "type": "uint256"
        },
        {
          "internalType": "bool",
          "name": "isListed",
          "type": "bool"
        }
      ],
      "stateMutability": "view",
      "type": "function"
    },
    {
      "inputs": [
        {
          "internalType": "string",
          "name": "uri",
          "type": "string"
        },
        {
          "internalType": "bool",
          "name": "isStock",
          "type": "bool"
        }
      ],
      "name": "mintAndList",
      "outputs": [],
      "stateMutability": "nonpayable",
      "type": "function"
    },
    {
      "inputs": [],
      "name": "name",
      "outputs": [
        {
          "internalType": "string",
          "name": "",
          "type": "string"
        }
      ],
      "stateMutability": "view",
      "type": "function"
    },
    {
      "inputs": [],
      "name": "owner",
      "outputs": [
        {
          "internalType": "address",
          "name": "",
          "type": "address"
        }
      ],
      "stateMutability": "view",
      "type": "function"
    },
    {
      "inputs": [
        {
          "internalType": "uint256",
          "name": "tokenId",
          "type": "uint256"
        }
      ],
      "name": "ownerOf",
      "outputs": [
        {
          "internalType": "address",
          "name": "",
          "type": "address"
        }
      ],
      "stateMutability": "view",
      "type": "function"
    },
    {
      "inputs": [],
      "name": "proxiableUUID",
      "outputs": [
        {
          "internalType": "bytes32",
          "name": "",
          "type": "bytes32"
        }
      ],
      "stateMutability": "view",
      "type": "function"
    },
    {
      "inputs": [],
      "name": "renounceOwnership",
      "outputs": [],
      "stateMutability": "nonpayable",
      "type": "function"
    },
    {
      "inputs": [
        {
          "internalType": "address",
          "name": "from",
          "type": "address"
        },
        {
          "internalType": "address",
          "name": "to",
          "type": "address"
        },
        {
          "internalType": "uint256",
          "name": "tokenId",
          "type": "uint256"
        }
      ],
      "name": "safeTransferFrom",
      "outputs": [],
      "stateMutability": "nonpayable",
      "type": "function"
    },
    {
      "inputs": [
        {
          "internalType": "address",
          "name": "from",
          "type": "address"
        },
        {
          "internalType": "address",
          "name": "to",
          "type": "address"
        },
        {
          "internalType": "uint256",
          "name": "tokenId",
          "type": "uint256"
        },
        {
          "internalType": "bytes",
          "name": "data",
          "type": "bytes"
        }
      ],
      "name": "safeTransferFrom",
      "outputs": [],
      "stateMutability": "nonpayable",
      "type": "function"
    },
    {
      "inputs": [
        {
          "internalType": "address",
          "name": "operator",
          "type": "address"
        },
        {
          "internalType": "bool",
          "name": "approved",
          "type": "bool"
        }
      ],
      "name": "setApprovalForAll",
      "outputs": [],
      "stateMutability": "nonpayable",
      "type": "function"
    },
    {
      "inputs": [
        {
          "internalType": "bytes4",
          "name": "interfaceId",
          "type": "bytes4"
        }
      ],
      "name": "supportsInterface",
      "outputs": [
        {
          "internalType": "bool",
          "name": "",
          "type": "bool"
        }
      ],
      "stateMutability": "view",
      "type": "function"
    },
    {
      "inputs": [],
      "name": "symbol",
      "outputs": [
        {
          "internalType": "string",
          "name": "",
          "type": "string"
        }
      ],
      "stateMutability": "view",
      "type": "function"
    },
    {
      "inputs": [],
      "name": "tokenCounter",
      "outputs": [
        {
          "internalType": "uint256",
          "name": "",
          "type": "uint256"
        }
      ],
      "stateMutability": "view",
      "type": "function"
    },
    {
      "inputs": [
        {
          "internalType": "uint256",
          "name": "tokenId",
          "type": "uint256"
        }
      ],
      "name": "tokenURI",
      "outputs": [
        {
          "internalType": "string",
          "name": "",
          "type": "string"
        }
      ],
      "stateMutability": "view",
      "type": "function"
    },
    {
      "inputs": [
        {
          "internalType": "address",
          "name": "from",
          "type": "address"
        },
        {
          "internalType": "address",
          "name": "to",
          "type": "address"
        },
        {
          "internalType": "uint256",
          "name": "tokenId",
          "type": "uint256"
        }
      ],
      "name": "transferFrom",
      "outputs": [],
      "stateMutability": "nonpayable",
      "type": "function"
    },
    {
      "inputs": [
        {
          "internalType": "address",
          "name": "newOwner",
          "type": "address"
        }
      ],
      "name": "transferOwnership",
      "outputs": [],
      "stateMutability": "nonpayable",
      "type": "function"
    },
    {
      "inputs": [
        {
          "internalType": "uint256",
          "name": "tokenId",
          "type": "uint256"
        },
        {
          "internalType": "bool",
          "name": "newStatus",
          "type": "bool"
        }
      ],
      "name": "updateStock",
      "outputs": [],
      "stateMutability": "nonpayable",
      "type": "function"
    },
    {
      "inputs": [
        {
          "internalType": "address",
          "name": "newImplementation",
          "type": "address"
        },
        {
          "internalType": "bytes",
          "name": "data",
          "type": "bytes"
        }
      ],
      "name": "upgradeToAndCall",
      "outputs": [],
      "stateMutability": "payable",
      "type": "function"
    },
    {
      "inputs": [],
      "name": "withdraw",
      "outputs": [],
      "stateMutability": "nonpayable",
      "type": "function"
    }
  ],
  "bytecode": "0x60a06040523073ffffffffffffffffffffffffffffffffffffffff1660809073ffffffffffffffffffffffffffffffffffffffff1681525034801561004357600080fd5b5061005261005760201b60201c565b6101c1565b600061006761015b60201b60201c565b90508060000160089054906101000a900460ff16156100b2576040517ff92ee8a900000000000000000000000000000000000000000000000000000000815260040160405180910390fd5b67ffffffffffffffff80168160000160009054906101000a900467ffffffffffffffff1667ffffffffffffffff16146101585767ffffffffffffffff8160000160006101000a81548167ffffffffffffffff021916908367ffffffffffffffff1602179055507fc7f505b2f371ae2175ee4913f4499e1f2633a7b5936321eed1cdaeb6115181d267ffffffffffffffff60405161014f91906101a6565b60405180910390a15b50565b60007ff0c57e16840df040f15088dc2f81fe391c3923bec73e23a9662efc9c229c6a00905090565b600067ffffffffffffffff82169050919050565b6101a081610183565b82525050565b60006020820190506101bb6000830184610197565b92915050565b6080516141276101ea60003960008181611c8901528181611cde0152611e9901526141276000f3fe60806040526004361061019c5760003560e01c806370a08231116100ec578063b88d4fde1161008a578063dc38ef0e11610064578063dc38ef0e14610584578063de74e57b146105ad578063e985e9c5146105ec578063f2fde38b146106295761019c565b8063b88d4fde146104f3578063c87b56dd1461051c578063d082e381146105595761019c565b80638da5cb5b116100c65780638da5cb5b1461044957806395d89b4114610474578063a22cb4651461049f578063ad3cb1cc146104c85761019c565b806370a08231146103de578063715018a61461041b5780638129fc1c146104325761019c565b806339bd5f4c116101595780634f1ef286116101335780634f1ef2861461031d57806352d1902d146103395780636352211e1461036457806367ad98da146103a15761019c565b806339bd5f4c146102b45780633ccfd60b146102dd57806342842e0e146102f45761019c565b806301ffc9a7146101a157806306fdde03146101de578063081812fc14610209578063095ea7b3146102465780631d85bf031461026f57806323b872dd1461028b575b600080fd5b3480156101ad57600080fd5b506101c860048036038101906101c3919061306b565b610652565b6040516101d591906130b3565b60405180910390f35b3480156101ea57600080fd5b506101f36106b3565b604051610200919061315e565b60405180910390f35b34801561021557600080fd5b50610230600480360381019061022b91906131b6565b610754565b60405161023d9190613224565b60405180910390f35b34801561025257600080fd5b5061026d6004803603810190610268919061326b565b610770565b005b610289600480360381019061028491906132ab565b610786565b005b34801561029757600080fd5b506102b260048036038101906102ad91906132eb565b610a8c565b005b3480156102c057600080fd5b506102db60048036038101906102d6919061349f565b610b8e565b005b3480156102e957600080fd5b506102f2610d77565b005b34801561030057600080fd5b5061031b600480360381019061031691906132eb565b610dcf565b005b6103376004803603810190610332919061359c565b610def565b005b34801561034557600080fd5b5061034e610e0e565b60405161035b9190613611565b60405180910390f35b34801561037057600080fd5b5061038b600480360381019061038691906131b6565b610e41565b6040516103989190613224565b60405180910390f35b3480156103ad57600080fd5b506103c860048036038101906103c3919061362c565b610e53565b6040516103d591906130b3565b60405180910390f35b3480156103ea57600080fd5b5061040560048036038101906104009190613675565b610e88565b60405161041291906136b1565b60405180910390f35b34801561042757600080fd5b50610430610f51565b005b34801561043e57600080fd5b50610447610f65565b005b34801561045557600080fd5b5061045e61117e565b60405161046b9190613224565b60405180910390f35b34801561048057600080fd5b506104896111b6565b604051610496919061315e565b60405180910390f35b3480156104ab57600080fd5b506104c660048036038101906104c191906136cc565b611257565b005b3480156104d457600080fd5b506104dd61126d565b6040516104ea919061315e565b60405180910390f35b3480156104ff57600080fd5b5061051a6004803603810190610515919061370c565b6112a6565b005b34801561052857600080fd5b50610543600480360381019061053e91906131b6565b6112cb565b604051610550919061315e565b60405180910390f35b34801561056557600080fd5b5061056e6113ef565b60405161057b91906136b1565b60405180910390f35b34801561059057600080fd5b506105ab60048036038101906105a6919061378f565b6113f5565b005b3480156105b957600080fd5b506105d460048036038101906105cf91906131b6565b611467565b6040516105e3939291906137cf565b60405180910390f35b3480156105f857600080fd5b50610613600480360381019061060e9190613806565b6114be565b60405161062091906130b3565b60405180910390f35b34801561063557600080fd5b50610650600480360381019061064b9190613675565b611560565b005b6000634906490660e01b7bffffffffffffffffffffffffffffffffffffffffffffffffffffffff1916827bffffffffffffffffffffffffffffffffffffffffffffffffffffffff191614806106ac57506106ab826115e6565b5b9050919050565b606060006106bf6116c8565b90508060000180546106d090613875565b80601f01602080910402602001604051908101604052809291908181526020018280546106fc90613875565b80156107495780601f1061071e57610100808354040283529160200191610749565b820191906000526020600020905b81548152906001019060200180831161072c57829003601f168201915b505050505091505090565b600061075f826116f0565b5061076982611778565b9050919050565b610782828261077d6117c3565b6117cb565b5050565b6000600260008481526020019081526020016000206040518060600160405290816000820160009054906101000a900473ffffffffffffffffffffffffffffffffffffffff1673ffffffffffffffffffffffffffffffffffffffff1673ffffffffffffffffffffffffffffffffffffffff168152602001600182015481526020016002820160009054906101000a900460ff16151515158152505090508060400151610867576040517f08c379a000000000000000000000000000000000000000000000000000000000815260040161085e906138f2565b60405180910390fd5b806000015173ffffffffffffffffffffffffffffffffffffffff1661088b84610e41565b73ffffffffffffffffffffffffffffffffffffffff16146108e1576040517f08c379a00000000000000000000000000000000000000000000000000000000081526004016108d89061395e565b60405180910390fd5b813414610923576040517f08c379a000000000000000000000000000000000000000000000000000000000815260040161091a906139ca565b60405180910390fd5b6000816000015173ffffffffffffffffffffffffffffffffffffffff163460405161094d90613a1b565b60006040518083038185875af1925050503d806000811461098a576040519150601f19603f3d011682016040523d82523d6000602084013e61098f565b606091505b50509050806109d3576040517f08c379a00000000000000000000000000000000000000000000000000000000081526004016109ca90613a7c565b60405180910390fd5b6109e2826000015133866117dd565b336002600086815260200190815260200160002060000160006101000a81548173ffffffffffffffffffffffffffffffffffffffff021916908373ffffffffffffffffffffffffffffffffffffffff160217905550833373ffffffffffffffffffffffffffffffffffffffff167fa6d32bfcc7cd31e4d5ee7adeef7edd500cab0e64b4a494de4f832d41fd70f56d34604051610a7e91906136b1565b60405180910390a350505050565b600073ffffffffffffffffffffffffffffffffffffffff168273ffffffffffffffffffffffffffffffffffffffff1603610afe5760006040517f64a0ae92000000000000000000000000000000000000000000000000000000008152600401610af59190613224565b60405180910390fd5b6000610b128383610b0d6117c3565b61194a565b90508373ffffffffffffffffffffffffffffffffffffffff168173ffffffffffffffffffffffffffffffffffffffff1614610b88578382826040517f64283d7b000000000000000000000000000000000000000000000000000000008152600401610b7f93929190613a9c565b60405180910390fd5b50505050565b610b96611b77565b600182604051610ba69190613b0f565b908152602001604051809103902060009054906101000a900460ff1615610c02576040517f08c379a0000000000000000000000000000000000000000000000000000000008152600401610bf990613b72565b60405180910390fd5b600080549050610c123382611bfe565b610c1c8184611c1c565b60018084604051610c2d9190613b0f565b908152602001604051809103902060006101000a81548160ff02191690831515021790555060405180606001604052803373ffffffffffffffffffffffffffffffffffffffff1681526020018281526020018315158152506002600083815260200190815260200160002060008201518160000160006101000a81548173ffffffffffffffffffffffffffffffffffffffff021916908373ffffffffffffffffffffffffffffffffffffffff1602179055506020820151816001015560408201518160020160006101000a81548160ff0219169083151502179055509050503373ffffffffffffffffffffffffffffffffffffffff16817f411b345259a1495602cee098e5f501eb3412e0701c10b173ecd8ba7b585974a985604051610d53919061315e565b60405180910390a3600080815480929190610d6d90613bc1565b9190505550505050565b610d7f611b77565b610d8761117e565b73ffffffffffffffffffffffffffffffffffffffff166108fc479081150290604051600060405180830381858888f19350505050158015610dcc573d6000803e3d6000fd5b50565b610dea838383604051806020016040528060008152506112a6565b505050565b610df7611c87565b610e0082611d6d565b610e0a8282611d78565b5050565b6000610e18611e97565b7f360894a13ba1a3210667c828492db98dca3e2076cc3735a920a3ca505d382bbc60001b905090565b6000610e4c826116f0565b9050919050565b6000600182604051610e659190613b0f565b908152602001604051809103902060009054906101000a900460ff169050919050565b600080610e936116c8565b9050600073ffffffffffffffffffffffffffffffffffffffff168373ffffffffffffffffffffffffffffffffffffffff1603610f075760006040517f89c62b64000000000000000000000000000000000000000000000000000000008152600401610efe9190613224565b60405180910390fd5b8060030160008473ffffffffffffffffffffffffffffffffffffffff1673ffffffffffffffffffffffffffffffffffffffff16815260200190815260200160002054915050919050565b610f59611b77565b610f636000611f1e565b565b6000610f6f611ff5565b905060008160000160089054906101000a900460ff1615905060008260000160009054906101000a900467ffffffffffffffff1690506000808267ffffffffffffffff16148015610fbd5750825b9050600060018367ffffffffffffffff16148015610ff2575060003073ffffffffffffffffffffffffffffffffffffffff163b145b905081158015611000575080155b15611037576040517ff92ee8a900000000000000000000000000000000000000000000000000000000815260040160405180910390fd5b60018560000160006101000a81548167ffffffffffffffff021916908367ffffffffffffffff16021790555083156110875760018560000160086101000a81548160ff0219169083151502179055505b6110fb6040518060400160405280600a81526020017f4172742047616c657279000000000000000000000000000000000000000000008152506040518060400160405280600581526020017f41474e465400000000000000000000000000000000000000000000000000000081525061201d565b611103612033565b61110c3361203d565b611114612051565b6000808190555083156111775760008560000160086101000a81548160ff0219169083151502179055507fc7f505b2f371ae2175ee4913f4499e1f2633a7b5936321eed1cdaeb6115181d2600160405161116e9190613c62565b60405180910390a15b5050505050565b60008061118961205b565b90508060000160009054906101000a900473ffffffffffffffffffffffffffffffffffffffff1691505090565b606060006111c26116c8565b90508060010180546111d390613875565b80601f01602080910402602001604051908101604052809291908181526020018280546111ff90613875565b801561124c5780601f106112215761010080835404028352916020019161124c565b820191906000526020600020905b81548152906001019060200180831161122f57829003601f168201915b505050505091505090565b6112696112626117c3565b8383612083565b5050565b6040518060400160405280600581526020017f352e302e3000000000000000000000000000000000000000000000000000000081525081565b6112b1848484610a8c565b6112c56112bc6117c3565b85858585612201565b50505050565b606060006112d76123b2565b90506112e2836116f0565b506000816000016000858152602001908152602001600020805461130590613875565b80601f016020809104026020016040519081016040528092919081815260200182805461133190613875565b801561137e5780601f106113535761010080835404028352916020019161137e565b820191906000526020600020905b81548152906001019060200180831161136157829003601f168201915b50505050509050600061138f6123da565b905060008151036113a5578193505050506113ea565b6000825111156113db5780826040516020016113c2929190613c7d565b60405160208183030381529060405293505050506113ea565b6113e4856123f1565b93505050505b919050565b60005481565b6113fd611b77565b806002600084815260200190815260200160002060020160006101000a81548160ff021916908315150217905550817f769620542ffbd44f2b91fe7c5fc1db446785e1fd4fc132fd3a69eca3982659c38260405161145b91906130b3565b60405180910390a25050565b60026020528060005260406000206000915090508060000160009054906101000a900473ffffffffffffffffffffffffffffffffffffffff16908060010154908060020160009054906101000a900460ff16905083565b6000806114c96116c8565b90508060050160008573ffffffffffffffffffffffffffffffffffffffff1673ffffffffffffffffffffffffffffffffffffffff16815260200190815260200160002060008473ffffffffffffffffffffffffffffffffffffffff1673ffffffffffffffffffffffffffffffffffffffff16815260200190815260200160002060009054906101000a900460ff1691505092915050565b611568611b77565b600073ffffffffffffffffffffffffffffffffffffffff168173ffffffffffffffffffffffffffffffffffffffff16036115da5760006040517f1e4fbdf70000000000000000000000000000000000000000000000000000000081526004016115d19190613224565b60405180910390fd5b6115e381611f1e565b50565b60007f80ac58cd000000000000000000000000000000000000000000000000000000007bffffffffffffffffffffffffffffffffffffffffffffffffffffffff1916827bffffffffffffffffffffffffffffffffffffffffffffffffffffffff191614806116b157507f5b5e139f000000000000000000000000000000000000000000000000000000007bffffffffffffffffffffffffffffffffffffffffffffffffffffffff1916827bffffffffffffffffffffffffffffffffffffffffffffffffffffffff1916145b806116c157506116c08261245a565b5b9050919050565b60007f80bb2b638cc20bc4d0a60d66940f3ab4a00c1d7b313497ca82fb0b4ab0079300905090565b6000806116fc836124c4565b9050600073ffffffffffffffffffffffffffffffffffffffff168173ffffffffffffffffffffffffffffffffffffffff160361176f57826040517f7e27328900000000000000000000000000000000000000000000000000000000815260040161176691906136b1565b60405180910390fd5b80915050919050565b6000806117836116c8565b905080600401600084815260200190815260200160002060009054906101000a900473ffffffffffffffffffffffffffffffffffffffff16915050919050565b600033905090565b6117d8838383600161250f565b505050565b600073ffffffffffffffffffffffffffffffffffffffff168273ffffffffffffffffffffffffffffffffffffffff160361184f5760006040517f64a0ae920000000000000000000000000000000000000000000000000000000081526004016118469190613224565b60405180910390fd5b600061185d8383600061194a565b9050600073ffffffffffffffffffffffffffffffffffffffff168173ffffffffffffffffffffffffffffffffffffffff16036118d057816040517f7e2732890000000000000000000000000000000000000000000000000000000081526004016118c791906136b1565b60405180910390fd5b8373ffffffffffffffffffffffffffffffffffffffff168173ffffffffffffffffffffffffffffffffffffffff1614611944578382826040517f64283d7b00000000000000000000000000000000000000000000000000000000815260040161193b93929190613a9c565b60405180910390fd5b50505050565b6000806119556116c8565b90506000611962856124c4565b9050600073ffffffffffffffffffffffffffffffffffffffff168473ffffffffffffffffffffffffffffffffffffffff16146119a4576119a38185876126e3565b5b600073ffffffffffffffffffffffffffffffffffffffff168173ffffffffffffffffffffffffffffffffffffffff1614611a37576119e660008660008061250f565b60018260030160008373ffffffffffffffffffffffffffffffffffffffff1673ffffffffffffffffffffffffffffffffffffffff168152602001908152602001600020600082825403925050819055505b600073ffffffffffffffffffffffffffffffffffffffff168673ffffffffffffffffffffffffffffffffffffffff1614611abc5760018260030160008873ffffffffffffffffffffffffffffffffffffffff1673ffffffffffffffffffffffffffffffffffffffff168152602001908152602001600020600082825401925050819055505b8582600201600087815260200190815260200160002060006101000a81548173ffffffffffffffffffffffffffffffffffffffff021916908373ffffffffffffffffffffffffffffffffffffffff160217905550848673ffffffffffffffffffffffffffffffffffffffff168273ffffffffffffffffffffffffffffffffffffffff167fddf252ad1be2c89b69c2b068fc378daa952ba7f163c4a11628f55a4df523b3ef60405160405180910390a480925050509392505050565b611b7f6117c3565b73ffffffffffffffffffffffffffffffffffffffff16611b9d61117e565b73ffffffffffffffffffffffffffffffffffffffff1614611bfc57611bc06117c3565b6040517f118cdaa7000000000000000000000000000000000000000000000000000000008152600401611bf39190613224565b60405180910390fd5b565b611c188282604051806020016040528060008152506127a7565b5050565b6000611c266123b2565b9050818160000160008581526020019081526020016000209081611c4a9190613e43565b507ff8e1a15aba9398e019f0b49df1a4fde98ee17ae345cb5f6b5e2c27f5033e8ce783604051611c7a91906136b1565b60405180910390a1505050565b7f000000000000000000000000000000000000000000000000000000000000000073ffffffffffffffffffffffffffffffffffffffff163073ffffffffffffffffffffffffffffffffffffffff161480611d3457507f000000000000000000000000000000000000000000000000000000000000000073ffffffffffffffffffffffffffffffffffffffff16611d1b6127cb565b73ffffffffffffffffffffffffffffffffffffffff1614155b15611d6b576040517fe07c8dba00000000000000000000000000000000000000000000000000000000815260040160405180910390fd5b565b611d75611b77565b50565b8173ffffffffffffffffffffffffffffffffffffffff166352d1902d6040518163ffffffff1660e01b8152600401602060405180830381865afa925050508015611de057506040513d601f19601f82011682018060405250810190611ddd9190613f41565b60015b611e2157816040517f4c9c8ce3000000000000000000000000000000000000000000000000000000008152600401611e189190613224565b60405180910390fd5b7f360894a13ba1a3210667c828492db98dca3e2076cc3735a920a3ca505d382bbc60001b8114611e8857806040517faa1d49a4000000000000000000000000000000000000000000000000000000008152600401611e7f9190613611565b60405180910390fd5b611e928383612822565b505050565b7f000000000000000000000000000000000000000000000000000000000000000073ffffffffffffffffffffffffffffffffffffffff163073ffffffffffffffffffffffffffffffffffffffff1614611f1c576040517fe07c8dba00000000000000000000000000000000000000000000000000000000815260040160405180910390fd5b565b6000611f2861205b565b905060008160000160009054906101000a900473ffffffffffffffffffffffffffffffffffffffff169050828260000160006101000a81548173ffffffffffffffffffffffffffffffffffffffff021916908373ffffffffffffffffffffffffffffffffffffffff1602179055508273ffffffffffffffffffffffffffffffffffffffff168173ffffffffffffffffffffffffffffffffffffffff167f8be0079c531659141344cd1fd0a4f28419497f9722a3daafe3b4186f6b6457e060405160405180910390a3505050565b60007ff0c57e16840df040f15088dc2f81fe391c3923bec73e23a9662efc9c229c6a00905090565b612025612895565b61202f82826128d5565b5050565b61203b612895565b565b612045612895565b61204e81612912565b50565b612059612895565b565b60007f9016d09d72d40fdae2fd8ceac6b6234c7706214fd39c1cd1e609a0528c199300905090565b600061208d6116c8565b9050600073ffffffffffffffffffffffffffffffffffffffff168373ffffffffffffffffffffffffffffffffffffffff160361210057826040517f5b08ba180000000000000000000000000000000000000000000000000000000081526004016120f79190613224565b60405180910390fd5b818160050160008673ffffffffffffffffffffffffffffffffffffffff1673ffffffffffffffffffffffffffffffffffffffff16815260200190815260200160002060008573ffffffffffffffffffffffffffffffffffffffff1673ffffffffffffffffffffffffffffffffffffffff16815260200190815260200160002060006101000a81548160ff0219169083151502179055508273ffffffffffffffffffffffffffffffffffffffff168473ffffffffffffffffffffffffffffffffffffffff167f17307eab39ab6107e8899845ad3d59bd9653f200f220920489ca2b5937696c31846040516121f391906130b3565b60405180910390a350505050565b60008373ffffffffffffffffffffffffffffffffffffffff163b11156123ab578273ffffffffffffffffffffffffffffffffffffffff1663150b7a02868685856040518563ffffffff1660e01b81526004016122609493929190613fc3565b6020604051808303816000875af192505050801561229c57506040513d601f19601f820116820180604052508101906122999190614024565b60015b612320573d80600081146122cc576040519150601f19603f3d011682016040523d82523d6000602084013e6122d1565b606091505b50600081510361231857836040517f64a0ae9200000000000000000000000000000000000000000000000000000000815260040161230f9190613224565b60405180910390fd5b805181602001fd5b63150b7a0260e01b7bffffffffffffffffffffffffffffffffffffffffffffffffffffffff1916817bffffffffffffffffffffffffffffffffffffffffffffffffffffffff1916146123a957836040517f64a0ae920000000000000000000000000000000000000000000000000000000081526004016123a09190613224565b60405180910390fd5b505b5050505050565b60007f0542a41881ee128a365a727b282c86fa859579490b9bb45aab8503648c8e7900905090565b606060405180602001604052806000815250905090565b60606123fc826116f0565b5060006124076123da565b905060008151116124275760405180602001604052806000815250612452565b8061243184612998565b604051602001612442929190613c7d565b6040516020818303038152906040525b915050919050565b60007f01ffc9a7000000000000000000000000000000000000000000000000000000007bffffffffffffffffffffffffffffffffffffffffffffffffffffffff1916827bffffffffffffffffffffffffffffffffffffffffffffffffffffffff1916149050919050565b6000806124cf6116c8565b905080600201600084815260200190815260200160002060009054906101000a900473ffffffffffffffffffffffffffffffffffffffff16915050919050565b60006125196116c8565b905081806125545750600073ffffffffffffffffffffffffffffffffffffffff168373ffffffffffffffffffffffffffffffffffffffff1614155b15612688576000612564856116f0565b9050600073ffffffffffffffffffffffffffffffffffffffff168473ffffffffffffffffffffffffffffffffffffffff16141580156125cf57508373ffffffffffffffffffffffffffffffffffffffff168173ffffffffffffffffffffffffffffffffffffffff1614155b80156125e257506125e081856114be565b155b1561262457836040517fa9fbf51f00000000000000000000000000000000000000000000000000000000815260040161261b9190613224565b60405180910390fd5b821561268657848673ffffffffffffffffffffffffffffffffffffffff168273ffffffffffffffffffffffffffffffffffffffff167f8c5be1e5ebec7d5bd14f71427d1e84f3dd0314c0f7b2291e5b200ac8c7c3b92560405160405180910390a45b505b8481600401600086815260200190815260200160002060006101000a81548173ffffffffffffffffffffffffffffffffffffffff021916908373ffffffffffffffffffffffffffffffffffffffff1602179055505050505050565b6126ee838383612a66565b6127a257600073ffffffffffffffffffffffffffffffffffffffff168373ffffffffffffffffffffffffffffffffffffffff160361276357806040517f7e27328900000000000000000000000000000000000000000000000000000000815260040161275a91906136b1565b60405180910390fd5b81816040517f177e802f000000000000000000000000000000000000000000000000000000008152600401612799929190614051565b60405180910390fd5b505050565b6127b18383612b27565b6127c66127bc6117c3565b6000858585612201565b505050565b60006127f97f360894a13ba1a3210667c828492db98dca3e2076cc3735a920a3ca505d382bbc60001b612c20565b60000160009054906101000a900473ffffffffffffffffffffffffffffffffffffffff16905090565b61282b82612c2a565b8173ffffffffffffffffffffffffffffffffffffffff167fbc7cd75a20ee27fd9adebab32041f755214dbc6bffa90cc0225b39da2e5c2d3b60405160405180910390a2600081511115612888576128828282612cf7565b50612891565b612890612d7b565b5b5050565b61289d612db8565b6128d3576040517fd7e6bcf800000000000000000000000000000000000000000000000000000000815260040160405180910390fd5b565b6128dd612895565b60006128e76116c8565b9050828160000190816128fa9190613e43565b508181600101908161290c9190613e43565b50505050565b61291a612895565b600073ffffffffffffffffffffffffffffffffffffffff168173ffffffffffffffffffffffffffffffffffffffff160361298c5760006040517f1e4fbdf70000000000000000000000000000000000000000000000000000000081526004016129839190613224565b60405180910390fd5b61299581611f1e565b50565b6060600060016129a784612dd8565b01905060008167ffffffffffffffff8111156129c6576129c5613348565b5b6040519080825280601f01601f1916602001820160405280156129f85781602001600182028036833780820191505090505b509050600082602001820190505b600115612a5b578080600190039150507f3031323334353637383961626364656600000000000000000000000000000000600a86061a8153600a8581612a4f57612a4e61407a565b5b04945060008503612a06575b819350505050919050565b60008073ffffffffffffffffffffffffffffffffffffffff168373ffffffffffffffffffffffffffffffffffffffff1614158015612b1e57508273ffffffffffffffffffffffffffffffffffffffff168473ffffffffffffffffffffffffffffffffffffffff161480612adf5750612ade84846114be565b5b80612b1d57508273ffffffffffffffffffffffffffffffffffffffff16612b0583611778565b73ffffffffffffffffffffffffffffffffffffffff16145b5b90509392505050565b600073ffffffffffffffffffffffffffffffffffffffff168273ffffffffffffffffffffffffffffffffffffffff1603612b995760006040517f64a0ae92000000000000000000000000000000000000000000000000000000008152600401612b909190613224565b60405180910390fd5b6000612ba78383600061194a565b9050600073ffffffffffffffffffffffffffffffffffffffff168173ffffffffffffffffffffffffffffffffffffffff1614612c1b5760006040517f73c6ac6e000000000000000000000000000000000000000000000000000000008152600401612c129190613224565b60405180910390fd5b505050565b6000819050919050565b60008173ffffffffffffffffffffffffffffffffffffffff163b03612c8657806040517f4c9c8ce3000000000000000000000000000000000000000000000000000000008152600401612c7d9190613224565b60405180910390fd5b80612cb37f360894a13ba1a3210667c828492db98dca3e2076cc3735a920a3ca505d382bbc60001b612c20565b60000160006101000a81548173ffffffffffffffffffffffffffffffffffffffff021916908373ffffffffffffffffffffffffffffffffffffffff16021790555050565b60606000808473ffffffffffffffffffffffffffffffffffffffff1684604051612d2191906140da565b600060405180830381855af49150503d8060008114612d5c576040519150601f19603f3d011682016040523d82523d6000602084013e612d61565b606091505b5091509150612d71858383612f2b565b9250505092915050565b6000341115612db6576040517fb398979f00000000000000000000000000000000000000000000000000000000815260040160405180910390fd5b565b6000612dc2611ff5565b60000160089054906101000a900460ff16905090565b600080600090507a184f03e93ff9f4daa797ed6e38ed64bf6a1f0100000000000000008310612e36577a184f03e93ff9f4daa797ed6e38ed64bf6a1f0100000000000000008381612e2c57612e2b61407a565b5b0492506040810190505b6d04ee2d6d415b85acef81000000008310612e73576d04ee2d6d415b85acef81000000008381612e6957612e6861407a565b5b0492506020810190505b662386f26fc100008310612ea257662386f26fc100008381612e9857612e9761407a565b5b0492506010810190505b6305f5e1008310612ecb576305f5e1008381612ec157612ec061407a565b5b0492506008810190505b6127108310612ef0576127108381612ee657612ee561407a565b5b0492506004810190505b60648310612f135760648381612f0957612f0861407a565b5b0492506002810190505b600a8310612f22576001810190505b80915050919050565b606082612f4057612f3b82612fba565b612fb2565b60008251148015612f68575060008473ffffffffffffffffffffffffffffffffffffffff163b145b15612faa57836040517f9996b315000000000000000000000000000000000000000000000000000000008152600401612fa19190613224565b60405180910390fd5b819050612fb3565b5b9392505050565b600081511115612fcd5780518082602001fd5b6040517fd6bda27500000000000000000000000000000000000000000000000000000000815260040160405180910390fd5b6000604051905090565b600080fd5b600080fd5b60007fffffffff0000000000000000000000000000000000000000000000000000000082169050919050565b61304881613013565b811461305357600080fd5b50565b6000813590506130658161303f565b92915050565b60006020828403121561308157613080613009565b5b600061308f84828501613056565b91505092915050565b60008115159050919050565b6130ad81613098565b82525050565b60006020820190506130c860008301846130a4565b92915050565b600081519050919050565b600082825260208201905092915050565b60005b838110156131085780820151818401526020810190506130ed565b60008484015250505050565b6000601f19601f8301169050919050565b6000613130826130ce565b61313a81856130d9565b935061314a8185602086016130ea565b61315381613114565b840191505092915050565b600060208201905081810360008301526131788184613125565b905092915050565b6000819050919050565b61319381613180565b811461319e57600080fd5b50565b6000813590506131b08161318a565b92915050565b6000602082840312156131cc576131cb613009565b5b60006131da848285016131a1565b91505092915050565b600073ffffffffffffffffffffffffffffffffffffffff82169050919050565b600061320e826131e3565b9050919050565b61321e81613203565b82525050565b60006020820190506132396000830184613215565b92915050565b61324881613203565b811461325357600080fd5b50565b6000813590506132658161323f565b92915050565b6000806040838503121561328257613281613009565b5b600061329085828601613256565b92505060206132a1858286016131a1565b9150509250929050565b600080604083850312156132c2576132c1613009565b5b60006132d0858286016131a1565b92505060206132e1858286016131a1565b9150509250929050565b60008060006060848603121561330457613303613009565b5b600061331286828701613256565b935050602061332386828701613256565b9250506040613334868287016131a1565b9150509250925092565b600080fd5b600080fd5b7f4e487b7100000000000000000000000000000000000000000000000000000000600052604160045260246000fd5b61338082613114565b810181811067ffffffffffffffff8211171561339f5761339e613348565b5b80604052505050565b60006133b2612fff565b90506133be8282613377565b919050565b600067ffffffffffffffff8211156133de576133dd613348565b5b6133e782613114565b9050602081019050919050565b82818337600083830152505050565b6000613416613411846133c3565b6133a8565b90508281526020810184848401111561343257613431613343565b5b61343d8482856133f4565b509392505050565b600082601f83011261345a5761345961333e565b5b813561346a848260208601613403565b91505092915050565b61347c81613098565b811461348757600080fd5b50565b60008135905061349981613473565b92915050565b600080604083850312156134b6576134b5613009565b5b600083013567ffffffffffffffff8111156134d4576134d361300e565b5b6134e085828601613445565b92505060206134f18582860161348a565b9150509250929050565b600067ffffffffffffffff82111561351657613515613348565b5b61351f82613114565b9050602081019050919050565b600061353f61353a846134fb565b6133a8565b90508281526020810184848401111561355b5761355a613343565b5b6135668482856133f4565b509392505050565b600082601f8301126135835761358261333e565b5b813561359384826020860161352c565b91505092915050565b600080604083850312156135b3576135b2613009565b5b60006135c185828601613256565b925050602083013567ffffffffffffffff8111156135e2576135e161300e565b5b6135ee8582860161356e565b9150509250929050565b6000819050919050565b61360b816135f8565b82525050565b60006020820190506136266000830184613602565b92915050565b60006020828403121561364257613641613009565b5b600082013567ffffffffffffffff8111156136605761365f61300e565b5b61366c84828501613445565b91505092915050565b60006020828403121561368b5761368a613009565b5b600061369984828501613256565b91505092915050565b6136ab81613180565b82525050565b60006020820190506136c660008301846136a2565b92915050565b600080604083850312156136e3576136e2613009565b5b60006136f185828601613256565b92505060206137028582860161348a565b9150509250929050565b6000806000806080858703121561372657613725613009565b5b600061373487828801613256565b945050602061374587828801613256565b9350506040613756878288016131a1565b925050606085013567ffffffffffffffff8111156137775761377661300e565b5b6137838782880161356e565b91505092959194509250565b600080604083850312156137a6576137a5613009565b5b60006137b4858286016131a1565b92505060206137c58582860161348a565b9150509250929050565b60006060820190506137e46000830186613215565b6137f160208301856136a2565b6137fe60408301846130a4565b949350505050565b6000806040838503121561381d5761381c613009565b5b600061382b85828601613256565b925050602061383c85828601613256565b9150509250929050565b7f4e487b7100000000000000000000000000000000000000000000000000000000600052602260045260246000fd5b6000600282049050600182168061388d57607f821691505b6020821081036138a05761389f613846565b5b50919050565b7f4e4654206e6f74206c697374656420666f722073616c65000000000000000000600082015250565b60006138dc6017836130d9565b91506138e7826138a6565b602082019050919050565b6000602082019050818103600083015261390b816138cf565b9050919050565b7f53656c6c6572206973206e6f7420746865206f776e657220616e796d6f726500600082015250565b6000613948601f836130d9565b915061395382613912565b602082019050919050565b600060208201905081810360008301526139778161393b565b9050919050565b7f496e636f72726563742045544820616d6f756e74000000000000000000000000600082015250565b60006139b46014836130d9565b91506139bf8261397e565b602082019050919050565b600060208201905081810360008301526139e3816139a7565b9050919050565b600081905092915050565b50565b6000613a056000836139ea565b9150613a10826139f5565b600082019050919050565b6000613a26826139f8565b9150819050919050565b7f455448207472616e73666572206661696c656400000000000000000000000000600082015250565b6000613a666013836130d9565b9150613a7182613a30565b602082019050919050565b60006020820190508181036000830152613a9581613a59565b9050919050565b6000606082019050613ab16000830186613215565b613abe60208301856136a2565b613acb6040830184613215565b949350505050565b600081905092915050565b6000613ae9826130ce565b613af38185613ad3565b9350613b038185602086016130ea565b80840191505092915050565b6000613b1b8284613ade565b915081905092915050565b7f55524920616c7265616479206578697374730000000000000000000000000000600082015250565b6000613b5c6012836130d9565b9150613b6782613b26565b602082019050919050565b60006020820190508181036000830152613b8b81613b4f565b9050919050565b7f4e487b7100000000000000000000000000000000000000000000000000000000600052601160045260246000fd5b6000613bcc82613180565b91507fffffffffffffffffffffffffffffffffffffffffffffffffffffffffffffffff8203613bfe57613bfd613b92565b5b600182019050919050565b6000819050919050565b600067ffffffffffffffff82169050919050565b6000819050919050565b6000613c4c613c47613c4284613c09565b613c27565b613c13565b9050919050565b613c5c81613c31565b82525050565b6000602082019050613c776000830184613c53565b92915050565b6000613c898285613ade565b9150613c958284613ade565b91508190509392505050565b60008190508160005260206000209050919050565b60006020601f8301049050919050565b600082821b905092915050565b600060088302613d037fffffffffffffffffffffffffffffffffffffffffffffffffffffffffffffffff82613cc6565b613d0d8683613cc6565b95508019841693508086168417925050509392505050565b6000613d40613d3b613d3684613180565b613c27565b613180565b9050919050565b6000819050919050565b613d5a83613d25565b613d6e613d6682613d47565b848454613cd3565b825550505050565b600090565b613d83613d76565b613d8e818484613d51565b505050565b5b81811015613db257613da7600082613d7b565b600181019050613d94565b5050565b601f821115613df757613dc881613ca1565b613dd184613cb6565b81016020851015613de0578190505b613df4613dec85613cb6565b830182613d93565b50505b505050565b600082821c905092915050565b6000613e1a60001984600802613dfc565b1980831691505092915050565b6000613e338383613e09565b9150826002028217905092915050565b613e4c826130ce565b67ffffffffffffffff811115613e6557613e64613348565b5b613e6f8254613875565b613e7a828285613db6565b600060209050601f831160018114613ead5760008415613e9b578287015190505b613ea58582613e27565b865550613f0d565b601f198416613ebb86613ca1565b60005b82811015613ee357848901518255600182019150602085019450602081019050613ebe565b86831015613f005784890151613efc601f891682613e09565b8355505b6001600288020188555050505b505050505050565b613f1e816135f8565b8114613f2957600080fd5b50565b600081519050613f3b81613f15565b92915050565b600060208284031215613f5757613f56613009565b5b6000613f6584828501613f2c565b91505092915050565b600081519050919050565b600082825260208201905092915050565b6000613f9582613f6e565b613f9f8185613f79565b9350613faf8185602086016130ea565b613fb881613114565b840191505092915050565b6000608082019050613fd86000830187613215565b613fe56020830186613215565b613ff260408301856136a2565b81810360608301526140048184613f8a565b905095945050505050565b60008151905061401e8161303f565b92915050565b60006020828403121561403a57614039613009565b5b60006140488482850161400f565b91505092915050565b60006040820190506140666000830185613215565b61407360208301846136a2565b9392505050565b7f4e487b7100000000000000000000000000000000000000000000000000000000600052601260045260246000fd5b60006140b482613f6e565b6140be81856139ea565b93506140ce8185602086016130ea565b80840191505092915050565b60006140e682846140a9565b91508190509291505056fea26469706673582212208e7566cf371261e105a1cdcaf124178f505bf0d6ffb39a98cb53abc57e34bca364736f6c634300081c0033",
  "linkReferences": {},
  "deployedLinkReferences": {}
}